:020000040800F2
:10000000A01B002041020008772700086D2300088C
:1000100075270008B70900085332000800000000E7
:10002000000000000000000000000000A90100081E
:10003000FD0A000800000000ED010008452F00083F
:100040005B0200085B0200085B0200085B0200081C
:100050005B0200085B0200085B0200085B0200080C
:100060005B0200085B0200085B0200085B020008FC
:100070005B0200085B0200085B0200085B020008EC
:100080005B0200085B0200085B0200085B020008DC
:100090005B0200085B0200085B0200085B020008CC
:1000A0005B0200085B0200085B0200085B020008BC
:1000B0005B0200085B020008ED2F00085B020008ED
:1000C0005B0200085B0200085B0200085B0200089C
:1000D0005B0200085B0200085B0200085B0200088C
:1000E0005B0200085B0200085B02000800F002F8F7
:1000F00000F04BF80AA090E8000C82448344AAF177
:100100000107DA4501D100F040F8AFF2090EBAE874
:100110000F0013F0010F18BFFB1A43F0010318473B
:100120006C5100008C510000103A24BF78C878C18F
:10013000FAD8520724BF30C830C144BF04680C60ED
:10014000704700000023002400250026103A28BF35
:1001500078C1FBD8520728BF30C148BF0B60704739
:10016000642900F0F180732900F0E38200207047D9
:100170001FB500F0BDFB04000020002103F0D8FEF5
:10018000401C60601FBD10B510BD00F08CFB114617
:10019000FFF7EEFF03F076F800F0BCFB03B4FFF7C7
:1001A000F2FF03BC00F000FC224B19680868B0E8BD
:1001B000F00F80F30988BFF36F8F4FF0000080F3DA
:1001C00011884EF00D0E70470000000006480068D0
:1001D000006880F3088862B661B6BFF34F8FBFF343
:1001E0006F8F00DF00BF00BF08ED00E0EFF3098074
:1001F000BFF36F8F0F4B1A6820E9F00F106008B53E
:100200004FF0500080F31188BFF34F8FBFF36F8F13
:1002100003F0ECFC4FF0000080F31188BDE80840CB
:1002200019680868B0E8F00F80F30988BFF36F8F92
:10023000704700BF44000020EFF3058070470000C6
:100240000948804709480047FEE7FEE7FEE7FEE76A
:10025000FEE7FEE7FEE7FEE7FEE7FEE704480549A6
:10026000054A064B70470000EB2F0008ED00000820
:10027000A0150020A01B0020A0170020A017002020
:100280000FB41CB5074B06AA7B446946009005983D
:1002900000F025FA0020694600F034FA1CBC5DF835
:1002A00014FB00007904000070B5044685690068FD
:1002B000C10601D5302600E02026C00707D070BD5A
:1002C000D4E9012130469047206A401C20626D1E0F
:1002D000F6D570BD70B5044685690078C00707D1B2
:1002E00070BDD4E9012120209047206A401C206283
:1002F0006D1EF6D570BD70B50C460546012A05D0B9
:100300002878800600D5EA69002302E0012305E091
:100310005B1C934202D2E05C0028F9D1A869E61880
:10032000C01AA861286A184428622846FFF7BCFF53
:1003300004E0D5E9012114F8010B9047B442F8D349
:100340002846FFF7C7FF70BD2DE9F041064600249F
:1003500010687529314616A510D0AFF3008000282B
:1003600002DA404213A507E031688A0701D512A5D9
:1003700002E0490704D511A5012401E0AFF3008094
:1003800000210A2206F1240709E0B0FBF2FCB0FBD1
:10039000F2F302FB1C00303078541846491C002848
:1003A000F3D123462A463046BDE8F04100F038B983
:1003B000000000002D0000002B00000020000000C5
:1003C0002DE9F05F894604464FF0000ADFF824B1BA
:1003D000FB44C0F820A02046E168884700287DD073
:1003E000252806D0D4E901219047206A401C2062CC
:1003F000F1E700255F462046E16888472028064649
:1004000007DB312E05D2B81910F8200C08B10543CE
:10041000F1E7A80701D525F00405C4F81CA00027C2
:10042000C4F818A02A2E09D0304602F023FF38B3B2
:1004300004EB8708303EC8F8186019E059F8041B2F
:10044000204604EB87029161E1688847012F064648
:1004500018D1E069002820DA25F020051DE0D8F841
:10046000180000EB800006EB40003038C8F8180098
:100470002046E1688847064602F0FCFE0028EED1DF
:10048000012F0AD02E2E08D12046E16888477F1C14
:100490000646022F45F02005C4DBA069002803DAD8
:1004A000404245F00105A061E80701D025F01005A4
:1004B000A6B1A6F14100192802D8203645F40065FE
:1004C0004A463146204625604D46FFF749FE60B159
:1004D000012807D0ED1D25F0070000E007E000F13E
:1004E000080978E705F1040975E730467AE7206ADC
:1004F000BDE8F09F8C4E000070B5064600F08CF809
:100500000468054630460A22002100F016F92C60E6
:1005100070BD10B5431C02E010F8011B71B18107DA
:10052000FAD14FF0013202C88C1A8C4314EAC2117E
:10053000F9D0C01A0A0603D0C01E10BDC01A10BDE3
:100540000A0401D0801E10BD0902FCD0401E10BD5F
:1005500010B5203AC0F00B80B1E81850203AA0E85E
:100560001850B1E81850A0E81850BFF4F5AF5FEA92
:10057000027C24BFB1E81850A0E8185044BF18C945
:1005800018C0BDE810405FEA827C24BF51F8043BEC
:1005900040F8043B08BF7047D20728BF31F8023B40
:1005A00048BF11F8012B28BF20F8023B48BF00F8D4
:1005B000012B704702F0FF0343EA032242EA0242A2
:1005C00000F0F5B84FF0000200B513469446964689
:1005D000203922BFA0E80C50A0E80C50B1F1200156
:1005E000BFF4F7AF090728BFA0E80C5048BF0CC004
:1005F0005DF804EB890028BF40F8042B08BF704762
:1006000048BF20F8022B11F0804F18BF00F8012BD3
:10061000704770477047704700487047401500208A
:100620002DE9F0470D4699469246044600F124080C
:100630000168880604D5E06921F01001216000E01E
:100640000120A84201DD471B00E00027A1697A19BB
:1006500002EB0900081AA0612078C00602D42046E7
:10066000FFF722FE002608E0D4E901211AF806006F
:100670009047206A401C761C20624E45F4DB2078AF
:10068000C0060AD52046FFF70FFE06E0D4E9012197
:1006900030209047206A401C2062381EA7F10107D5
:1006A000F4DC07E0D4E9012118F805009047206A3E
:1006B000401C2062281EA5F10105F3DC2046FFF74F
:1006C00009FE2078000602D50220BDE8F08701204F
:1006D000FBE7000001694A1C02610878704700B519
:1006E0008FB0CDE901310021059105497944CDE96B
:1006F000031011466846FFF763FE0FB000BD00000F
:10070000E5FFFFFF0A6802F8010B0A60704710B5A9
:10071000436913B1AFF3008001E0FFF7ECFD012066
:1007200010BD127800F124010A7000224A700122E3
:10073000EDE711684FF0FF32E9E72DE9F047914608
:100740000F4680460446002614F8015B2DB100F0E8
:1007500053F80068405DC007F6D12B2D02D02D2D37
:1007600018D0641E4A463946204600F04DF827B19D
:100770003968A14201D1C7F800804FF00204710529
:100780000BD54042002803DDFFF746FF0460A007B9
:10079000BDE8F08746F48066E4E70028F8DAFFF762
:1007A0003BFF04606FF00040F2E74FF000020429C5
:1007B000C0F0128010F0030C3FF406AFCCF1040C33
:1007C000BCF1020F18BF00F8012BA8BF20F8022BC4
:1007D000A1EB0C01FFF7F8BE5FEAC17C24BF00F873
:1007E000012B00F8012B48BF00F8012B70470000D7
:1007F000004870474015002010B500F079F8001D42
:1008000010BD00BF2D3700002DE9F05F8246154670
:100810008B4600270AF10104B9460078302801D040
:100820009DB113E014F8010B0127782803D0582854
:1008300001D045B10AE00DB1102D07D1002714F801
:10084000010B102502E0082500E00A250026B0462D
:100850000EE005FB080005FB06F101271FFA80F8F2
:1008600001EB1046B6F5803F00D3B94614F8010BF2
:10087000294600F041F80028EBDABBF1000F05D063
:100880000FB1641E00E05446CBF80040B9F1000FF0
:1008900006D0FFF7C1FE02210160C81EBDE8F09F2F
:1008A00048EA0640FAE77546FFF7A2FFAE460500A4
:1008B0006946534620F00700854618B020B5FFF77B
:1008C000CDFCBDE820404FF000064FF000074FF090
:1008D00000084FF0000B21F00701AC46ACE8C0095E
:1008E000ACE8C009ACE8C009ACE8C0098D46704767
:1008F00000487047601500203A2800D2303820F0B8
:100900002002412A01D3A2F13700884201D34FF0DF
:10091000FF30704710B50446AFF300802046BDE8B5
:100920001040FFF73BBC00004FF0013C50F8042B97
:1009300051F8043B9A4221D1A2EB0C03934313EAF2
:10094000CC1317D150F8042B51F8043B9A4215D11F
:10095000A2EB0C03934313EACC130BD150F8042BF6
:1009600051F8043B9A4209D1A2EB0C03934313EADA
:10097000CC13DBD04FF00000704700BFD01A01BA93
:10098000B1FA81F101F0180122FA01F0CB40C1F176
:100990002001DBB2C0B2C01A2CFA01F3D11A914384
:1009A00011EAC311E6D1704701491820ABBEFEE73A
:1009B000260002007047FEE72DE9F04700254FF0C2
:1009C000010A4FF40079DFF88480214C00F0A4F98B
:1009D000E06100F0A1F94F46206202E000F09CF9CE
:1009E00020623946404600F08DF920B9D4E907016C
:1009F000801C8842F2D8282002F032FDB9463946E0
:100A00004746404600F07EF90028C5F107010AFA82
:100A100001F019D03043C6B200F07EF9C4F81C00D2
:100A200000F07AF920624946384600F06BF920B1AF
:100A3000D4E90701801C8842F2D86D1CEDB2082D64
:100A4000C4D33046BDE8F0878643E5E7000C01409B
:100A5000100000202DE9FF41002502204FF4007412
:100A60004FF00108CDE90250224ECDE900482F4653
:100A70006946304600F056F800222146304600F024
:100A800046F940F2145002F0EBFC012221463046B8
:100A900000F03DF91E2002F0E3FCCDE90178694643
:100AA000304600F03FF8282002F0DAFC21463046BC
:100AB00000F028F940B9502002F0D2FC214630461F
:100AC00000F020F900B1012500F026F90A4FF86185
:100AD00000F022F938622146304600F013F920B1C7
:100AE000D7E90701801C8842F2D804B02846BDE847
:100AF000F0810000000C0140100000207047000051
:100B000070B5044600F008F90546601C02D00448A0
:100B10000078044400F000F9401BA042FAD370BDF5
:100B2000340000202DE9F84FDFF8B8910024A9F136
:100B3000040B23460F2709F1040AABF1040EC9E0A8
:100B40000125A5402A40AA427DD1674ED1F804C0B4
:100B5000ACEB0608B44532D014DCBCF1030F3AD03C
:100B600009DCBCF1000F2AD0BCF1010F1CD0BCF194
:100B7000020F31D11DE0BCF1110F17D0BCF1120FE3
:100B80002AD119E0B8F5881F19D006DCB8F5803FE6
:100B900015D0B8F5801F1FD111E0B8F5001F0ED099
:100BA000B8F5041F18D10AE0CB6815E0CB681B1D0F
:100BB00012E0CB6808330FE0CB680C330CE08B6895
:100BC0002BB1012B4FF0080303D0456104E004234F
:100BD00002E0056100E00023FF2A01D8064601E09B
:100BE00000F104064FEA840501D9A5F12005D6F8E5
:100BF000008007FA05FC28EA0C0803FA05F548EA24
:100C00000508C6F800804D68ED0062D5374DAE6925
:100C100046F00106AE61AD6924F0030605F001055A
:100C20000095334D06EB050CDCF80850A607360F8F
:100C300007FA06F825EA0805DFF8B880404503D131
:100C40004FF0000817E044E0DFF8AC80404502D1E7
:100C50004FF001080FE0DFF8A480404502D14FF0CB
:100C6000020808E0DFF89880404502D14FF0030801
:100C700001E04FF0040808FA06F848EA0508CCF845
:100C800008804D68D9F80060ED024D4601D5164345
:100C900000E096432E604D68DAF80060AD025546DC
:100CA00001D5164300E096432E604D68DBF80060E6
:100CB000AD035D4601D5164300E096432E604D68B6
:100CC000DEF80060ED03754601D5164300E096435B
:100CD0002E60641C0D682A46E5407FF431AFBDE804
:100CE000F88F0000080401400000111000100240BD
:100CF0000000014000080140000C014000100140CC
:100D0000001401408068084000D0012070470AB1FB
:100D1000016170470904FBE70148806870470000E3
:100D20003400002070B5040025D094F83D00002563
:100D300020B984F83C50204600F004FA242084F8BE
:100D40003D002068016821F0010101602068016810
:100D500041F4004101602068016821F40041016014
:100D600000F06CFC4D4A6168914201D84C4900E0AA
:100D70004C49884201D2012070BD4B492368B0FB29
:100D8000F1F15E6826F03F060E435E6063689342B1
:100D900006D94FF4967359434FF47A73B1FBF3F1CC
:100DA0002368491C1E6A26F03F06314319626168B8
:100DB000914210D84900401EB0FBF1F2521CC2F320
:100DC0000B02042A01D2042022E0B0FBF1F0401C07
:100DD000C0F30B001CE0A268F2B301EBC10303EB0C
:100DE0000116431EB3FBF6F35B1C43F480431B0563
:100DF00049D092B301EBC10202EB0111401EB0FBDE
:100E0000F1F0401CC0F30B0040F4804040F400407F
:100E10002168CA694CF6FF739A431043C861D4E94C
:100E2000071001432068026822F0C00211430160EC
:100E3000D4E9030101432068826848F2FF339A43F2
:100E400011438160D4E9050108432168CA6822F092
:100E5000FF021043C86001E00EE016E02068016860
:100E600041F0010101602564202084F83D002563E4
:100E700084F83E50002070BD01EB4106431EB3FBD9
:100E8000F6F35B1CB3E70120C2E701EB4101401E12
:100E9000B0FBF1F0401CC0F30B00B7E7A0860100E7
:100EA00080841E0000093D0040420F002DE9FF4FE5
:100EB00081B089460446FFF72FFF054694F83D00B0
:100EC0004FF0000820287DD11923012250492046E7
:100ED000009501F0DDFA002874D194F83C00012857
:100EE00070D0012084F83C0020680168C90703D154
:100EF000016841F0010101602068016821F400618E
:100F00000160242084F83D00002626644148E06208
:100F10004FF0011B20272068016841F480710160B7
:100F20000095002259462046049B01F0B1FA50B1C9
:100F300020680068C00502D54FF4007020640320CB
:100F400005B0BDE8F08F216809F0FE000861FFF7E9
:100F5000E3FE2168054648694969C0F34000C1F3D2
:100F600080214FF0A00A0FE0FFF7D6FE411B049846
:100F7000814200D808B984F83DA0216848694969D0
:100F8000C0F34000C1F3802194F83D20A02A02D094
:100F900008B90029E8D084F83D7020684169C94348
:100FA000890716D4016841F4007101602068416925
:100FB00080691923012216492046009501F068FA3C
:100FC000B8B900E021E084F83D7084F83C6000206E
:100FD000B6E7016841F40071016021686FF4806038
:100FE0004861192301220A492046009501F050FA70
:100FF00008B10120A4E7039808F1010880458AD3CD
:1010000084F83D7084F83C60F3E7022098E7000024
:10101000020010000000FFFF2DE9F84F1F46904628
:101020008A460446DDF82890FFF776FE054694F8D8
:101030003D0020287FD119230122404920460095F8
:1010400001F026FA002876D194F83C00012872D0ED
:10105000012084F83C0020680168C90703D10168B9
:1010600041F0010101602068016821F40061016024
:10107000212084F83D00102084F83E0000262664DC
:10108000C4F824806785608D20852D48E0622B465A
:101090004A465146204601F081F990B920684169DD
:1010A0008069009036E02A464946204601F096FACB
:1010B00050B1206C042804D12068016841F400710B
:1010C00001600120BDE8F88F606A2168007808613E
:1010D000606A401C6062618D491E6185218D491ED8
:1010E00089B2218522685369DB435B070BD451B178
:1010F00000781061606A401C6062608D401E6085EF
:10110000208D401E20852A464946204601F094F94C
:101110000028CED1208D0028C5D154F83D0B0168A0
:1011200041F400710160202004F81E09E67766771B
:101130000020C7E7FFE70220C4E70000020010001C
:101140000000FFFF10B586B00021009101910291CF
:10115000039100680F4988421AD10F4CA06940F0F2
:101160000800A061A069694600F008000490C02052
:10117000009012200190032003900848FFF7D2FC52
:10118000E06940F40010E061E06900F400100490B0
:1011900006B010BD0054004000100240000C014099
:1011A0000248816802781144816070473400002051
:1011B000074810B5016841F010010160032000F0FC
:1011C000A7F80F2000F006F800F050F8002010BD3E
:1011D0000020024030B505461F4887B0C16941F084
:1011E0000401C161C06906A900F00400009001A8D3
:1011F00000F004FA0498B0B100F020FA400017495A
:10120000174AB0FBF1F11748491E0260416040F2F5
:10121000E7320021C0E903218160816100F0E8FD2F
:10122000040003D015E000F009FAE8E70D4800F0EB
:1012300049FE04000DD11E2000F03CF8102D07D20D
:10124000002229461E2000F043F80748056000E010
:10125000012407B0204630BD0010024040420F007C
:101260000008004008080020380000200F4808B59A
:10127000816941F001018161816901F00101009101
:10128000C16941F08051C161C069002200F0805005
:1012900000900F21901E00F01BF80548416821F0D6
:1012A000E06141F00071416008BD000000100240A3
:1012B00000000140002809DB00F01F0201219140DD
:1012C0004009800000F1E020C0F8001170470000E4
:1012D000F0B40E4B1B680C46C3F30223C3F10705A1
:1012E000042D00D90425191D072901D2002300E08F
:1012F000DB1E012606FA05F1491E214099409E4059
:10130000761E16403143F0BC01F0A4BF0CED00E0A6
:10131000064900F0070208684FF6FF03184040EA4C
:101320000220034A10430860704700000CED00E003
:101330000000FA05014901200862704700000E42D2
:1013400010B501460020234C012922D0022939D0B2
:1013500010291DD161682268D20119D51E48C1F338
:101360008342C903805C0AD561681B4AC1F34041CE
:10137000921E515C194AB2FBF1F1484301E0184951
:1013800048436168490203D440000321B0FBF1F0F7
:1013900010BD226AC2F30121012903D1920701D5B0
:1013A000C80310BD022905D1626A920702D549F629
:1013B000404010BD0329FCD121688903F9D54FF2C3
:1013C000244010BD00F04AF96168C1F38131491C25
:1013D0004900DBE7001002403852000800127A0092
:1013E00000093D002DE9F84305460078354CC0075B
:1013F00054D0E0690026C00008D4E06940F0805075
:10140000E061E069012600F0805000902E480168FC
:10141000C90512D40168804641F480710160FFF76C
:101420007BFC074605E000BFFFF776FCC01B642885
:1014300023D8D8F80000C005F6D5206A10F4407013
:1014400021D0A98801F4407181421CD0206A1F4933
:10145000012220F440700A6000220A602062C00766
:1014600011D0FFF759FC074641F2883808E000BF69
:10147000FFF752FCC11B414502D90320BDE8F883A8
:10148000206A8007F4D5206A696820F44070084318
:1014900020621EB1E06920F08050E061287880076A
:1014A00005D56068A96820F440400843606028784A
:1014B000C00605D56068E96820F4800008436060D4
:1014C0000020DBE700100240007000404004424270
:1014D0002DE9F0470F46050061D0434E306800F01B
:1014E0000700B84209D2306820F007003843306066
:1014F000306800F00700B84251D128683B4C8107A2
:1015000012D5400703D5606840F4E0606060287839
:10151000000703D5606840F4605060606068A968A7
:1015200020F0F000084360602878C00728D0686881
:10153000012810D02168022810D0890700292EDA4E
:10154000616821F0030101436160FFF7E5FB80461C
:1015500041F288390DE021688903EFE78901EDE761
:10156000FFF7DAFBA0EB0801494502D90320BDE8EB
:10157000F0876068696800F00C00B0EB810FEFD174
:10158000306800F00700B8420BD9306820F007003F
:1015900038433060306800F00700B84201D00120C5
:1015A000E5E72878400705D56068E96820F4E06041
:1015B000084360602878000706D56068296920F430
:1015C000605040EAC100606000F058F86168084A65
:1015D000C1F30311515CC840064908600648006821
:1015E000FFF7F8FD0020C2E7002002400010024093
:1015F0004852000840000020380000200F220260FE
:101600000C4A536803F003034360536803F0F0038C
:101610008360536803F4E063C36052684FF4E0638F
:1016200003EAD20202610448006800F00700086083
:1016300070470000001002400020024004480549A5
:1016400000684968044AC1F30221515CC8407047F0
:10165000400000200010024058520008044805498C
:1016600000684968044AC1F3C221515CC840704710
:101670004000002000100240585200080E4A5168F5
:101680000E4801F00C03042B11D0082B0FD10C488D
:10169000C1F38343C903C05C0AD55168084AC1F34A
:1016A0004041921E515C054A5043B0FBF1F0704737
:1016B00004494843704700000010024000127A00BD
:1016C0002652000800093D002DE9F84F040070D0B3
:1016D0002078C04DC00749D06868C0F38100012858
:1016E00007D06868C0F38100022809D16868C00388
:1016F00006D52868800339D560680028E7D035E032
:101700006068B0F5803F0BD010B1B0F5A02F11D0BC
:10171000286820F480302860286820F4802002E0C7
:10172000286840F480302860606890B1FFF7F4FAD0
:1017300006460AE0286840F480202860F0E700BFF1
:10174000FFF7EAFA801B642873D828688003F7D56E
:101750000CE0FFF7E1FA064605E000BFFFF7DCFA10
:10176000801B6428F0D828688003F7D420789A4E2C
:1017700080074FF001094FF0000839D5686810F074
:101780000C0F07D06868C0F38100022809D168688F
:10179000C00306D42868800714D52069012808D121
:1017A00010E02069B0B1C6F80090FFF7B5FA07461F
:1017B00005E00AE1FFF7B0FAC01B0228C4D8286888
:1017C0008007F7D52868616920F0F80040EAC10079
:1017D00028600DE0C6F80080FFF79EFA074604E097
:1017E000FFF79AFAC01B022823D828688007F7D48D
:1017F000207800072CD57948A169D9B1C0F80090AC
:10180000FFF78AFA074604E0FFF786FAC01B0228B2
:101810000FD8686A8007F7D571484FF4FA5100680D
:10182000B0FBF1F0009000BF0098411E0091FAD289
:101830000EE080E0C0F80080FFF76EFA074604E093
:10184000FFF76AFAC01B022875D8686A8007F7D4C8
:101850002078400760D5E8690027C00008D4E8690F
:1018600040F08050E861E869012700F08050009066
:101870005C480168C90513D40168834641F480714E
:101880000160FFF749FA824606E000BFFFF744FA1D
:10189000A0EB0A0064284ED8DBF80000C005F5D59F
:1018A000E06801280AD008B1052813D0286A20F082
:1018B00001002862286A20F0040002E0286A40F053
:1018C00001002862E06841F2883B98B1FFF724FAF2
:1018D00082460BE0286A40F004002862EEE700BF71
:1018E000FFF71AFAA0EB0A0159455AD8286A80076F
:1018F000F6D50CE0FFF710FA824605E0FFF70CFA88
:10190000A0EB0A0159454CD8286A8007F6D41FB1CC
:10191000E86920F08050E861E06988B36968C1F344
:101920008101022944D00228C6F8608004D0FFF764
:10193000F3F9044638E034E0FFF7EEF9074604E037
:10194000FFF7EAF9C01B02282BD828688001F7D4DA
:10195000206AB0F5803F05D16868A16820F40030A6
:1019600008436860D4E908010843696821F47411E8
:1019700008436860C6F86090FFF7CEF9044606E0B9
:1019800025E000BFFFF7C8F9001B022809D8286826
:101990008001F7D51BE000BFFFF7BEF9001B02284E
:1019A00002D90320BDE8F88F28688001F4D40EE046
:1019B0000128F7D06868226A00F48031914204D18E
:1019C000616A00F47010884201D00120EAE700202B
:1019D000E8E700000010024000004242800442425A
:1019E0004000002000700040F8B505004FF00000F6
:1019F00016460C46009006D02CB1002269462846B7
:101A000000F019F808B10120F8BD287B2070E87BB0
:101A1000E070697B6170A97BA17056B100F0B5FEE2
:101A2000E070607800F0B1FE6070A07800F0ADFE6C
:101A3000A0700020F8BD2DE9F04791460C465FEA02
:101A400000084AD084B3D8F800004068400744D466
:101A5000404600F039FF4FF461620546B0FBF2F1F9
:101A6000B0FBF2F302FB13503C23B0FBF3F0B5FBE9
:101A7000F2F6607002FB1650B0FBF3F203FB1200AB
:101A8000A070182931D31820B1FBF0F7B1FBF0F2A8
:101A900000FB12102070404600F00FFF411C04D0E4
:101AA000A84202D9461B02E017E04FF0FF36A7EB31
:101AB000071000EB4000C0EB001005EBC0152946F5
:101AC000404600F050FF40B9701C01D0711900E091
:101AD0003146404600F033FF10B10120BDE8F087E9
:101AE0003946404600F05CFE00E02170B9F1000F7D
:101AF0000BD0207800F049FE2070607800F045FEA1
:101B00006070A07800F041FEA0700020E6E70000C1
:101B100070B5040003D0607C002610B105E0012000
:101B200070BD2674204600F03DF802206074204607
:101B300000F00AF9042550BB204600F088FE30BBB7
:101B40002068416821F007014160A06820B1144875
:101B5000016821F0010101601148001F0168A268BD
:101B600021F46071114301606068411C04D10120BF
:101B7000FFF7E6FB58B1401E2268C0F303419160B5
:101B8000216880B2C860204600F07CFE08B1657410
:101B9000C5E7E67301206073A0736074002070BD18
:101BA000306C004008B50068084988420DD1FFF745
:101BB000C1FB0748C16941F00061C161C0690549C5
:101BC00000F0006000900120086008BD002800407F
:101BD000001002403C0442422DE9F0410D46040051
:101BE0003BD0C5B3207C01283AD04FF0010884F8DF
:101BF000108002206074E87872B300F0BDFDE073DD
:101C0000687800F0B9FD6073A87800F0B5FDA073A6
:101C1000C2B2617BE07B00F067FE20732870204633
:101C200000F052FE4FF46161B0FBF1F1002518297C
:101C30002DD91822B1FBF2F1A1EB011101EB410109
:101C4000C1EB011100EBC1163146204600F08BFEBE
:101C50000427C8B90BE000E004E00120BDE8F081F2
:101C60000220FBE7E07368786073A878CFE720462E
:101C700000F023FE411C0AD0B04208D206490144BC
:101C8000204600F05CFE10B167742574E5E784F827
:101C9000118025740020E1E7805101002DE9F04119
:101CA0000D46040024D01DB3207C012823D04FF022
:101CB000010884F81080022060742878EAB100F0EE
:101CC0005BFD4FF4616100FB01F6687800F054FDA4
:101CD000C0EB001006EB8006A87800F04DFD35182B
:101CE0002946204600F03FFE0026042710BB0FE0E7
:101CF0000120BDE8F0810220FBE74FF46161484319
:101D00006978C1EB011100EB8100A9784518E7E77C
:101D10002068416821F005014160204600F0CDFDBA
:101D2000411C0AD0A84208D206490144204600F0CE
:101D300006FE10B167742674DAE784F81180267401
:101D40000020D6E78051010070B504000AD0206859
:101D5000416821F008014160FEF7DEFF05464FF4BF
:101D60007A7608E0012070BDFEF7D6FF401BB04236
:101D700001D9032070BD206840680007F4D5002019
:101D800070BD70477047000070B590F83C20012A84
:101D900026D0012480F83C40022280F83D200368D0
:101DA0005A689D6822F070060A6832435A600D4BEB
:101DB00002689A4208D0B2F1804F05D00A4B9A428D
:101DC00002D00A4B9A4204D1496825F08003194396
:101DD000916080F83D40002180F83C10084670BDBD
:101DE000022070BD002C01400004004000080040AB
:101DF00010B5040003D094F83D0010B107E00120B5
:101E000010BD002084F83C00204600F01FF802209E
:101E100084F83D00211D206801F0EEF8012084F8CF
:101E2000460084F83E0084F83F0084F8400084F8BF
:101E3000410084F8420084F8430084F8440084F8A8
:101E4000450084F83D00002010BD000008B5006882
:101E50000649884208D10648816941F400618161E0
:101E6000806900F40060009008BD0000002C014073
:101E70000010024090F83D10012901D00120704768
:101E8000022180F83D1000680B49884208D0B0F16B
:101E9000804F05D00949884202D00949884204D1BF
:101EA000816801F00701062903D0016841F00101B2
:101EB0000160002070470000002C01400004004039
:101EC0000008004090F83D10012901D00120704722
:101ED000022180F83D100168CA6842F00102CA6020
:101EE00000680B49884208D0B0F1804F05D00949FD
:101EF000884202D00849884204D1816801F0070174
:101F0000062903D0016841F00101016000207047FB
:101F1000002C0140000400400008004070B5044659
:101F200090F83C000025012817D0012684F83C6079
:101F3000022084F83D002068826822F0770222F4B3
:101F40007F4282600868502838D00DDC20284FD0AE
:101F500005DC90B3102811D14AE0022070BD302872
:101F600046D040280AD13BE060282FD070280DD001
:101F7000B0F5805F03D0B0F5005F12D0012584F882
:101F80003D60002084F83C00284670BDCB68D1E954
:101F90000121206801F06CF82068816841F0770128
:101FA00009E0CB68D1E90121206801F061F82068DF
:101FB000816841F480418160E1E719E0CA684968BD
:101FC000206801F067F85021206806E0CA68496877
:101FD000206801F070F86021206801F053F8CEE726
:101FE000CA684968206801F055F840212068F4E784
:101FF000226801461046F0E770472DE9F04104469B
:102000000068C66805694FF00007A90713D5B10736
:1020100011D5F91E016101202077206880698007B1
:10202000204602D0FFF7E8FF04E000F07EF82046EB
:1020300000F07CF82777680716D5700714D521685B
:102040006FF004000861022020772068806910F496
:10205000407F204602D0FFF7CFFF04E000F065F894
:10206000204600F063F82777280715D5300713D5E9
:1020700021686FF008000861042020772068C0699B
:102080008007204602D0FFF7B7FF04E000F04DF8CC
:10209000204600F04BF82777E80616D5F00614D551
:1020A00021686FF010000861082020772068C0695F
:1020B00010F4407F204602D0FFF79EFF04E000F0BE
:1020C00034F8204600F032F82777E80708D0F00708
:1020D00006D021686FF001000861204600F028F862
:1020E000280608D5300606D521686FF08000086103
:1020F0002046FFF746FE680608D5700606D521681B
:102100006FF040000861204600F01CF8A8060AD5D0
:10211000B00608D521686FF0200008612046BDE8B0
:10212000F041FFF72FBEBDE8F08170477047000017
:1021300000680349884201D1FFF732B870470000B8
:1021400000080040704770B5040004D094F84100C6
:10215000002510B106E0012070BD84F840502046F3
:1021600000F024F8242084F841002068C16821F49C
:102170000051C160204600F0D7FF2068016921F4BA
:10218000904101612068416921F02A014161206884
:10219000C16841F40051C1606564202084F84100A9
:1021A00084F842006563002070BD000030B585B042
:1021B0000024009401940294039400681449884216
:1021C00024D11448816941F480418161816901F41D
:1021D00080410491816941F00401816180690E4D63
:1021E00000F0040004904FF4007000900220019071
:1021F0000320039069462846FEF794FC2815CDE994
:102200000004694628460294FEF78CFC05B030BDF8
:102210000038014000100240000801402DE9F84F4D
:10222000044690F842009A4616460D46202802D0F1
:102230000220BDE8F88FB5B1AEB100206064222164
:1022400084F842102063FEF767FDA6858146E68587
:10225000A0684FF480582027404501D1206920B163
:102260002E46002529E00120E3E7002625E04B4625
:10227000002220212046CDF800A000F0B1FF18B1C7
:1022800084F842700320D4E726B1A06840451AD0F4
:1022900038B108E020684068C0F3080025F8020B58
:1022A00008E0206978B12068406800F07F0000BF36
:1022B00006F8010BE08D401EE085E08D0028D6D1A8
:1022C00084F84270B5E720684068F1E72DE9F843EB
:1022D000044690F84100984616460D46202802D044
:1022E0000220BDE8F88385B17EB100206064212022
:1022F00084F84100FEF710FDA6848146E684A068BC
:102300002027B0F5805F02D003E00120E9E72069D3
:1023100010B12E4600250EE000260CE0802120465C
:1023200000F05EFFA8B9C6B116F8010B216848603D
:10233000E08C401EE084E08C4B464FF00002CDF86C
:1023400000800028EAD14FF04001204600F048FF0D
:1023500040B184F841700320C3E735F8020BC0F3A5
:102360000800E3E784F841700020BAE7FEE701685F
:102370004A69D24352050FD46FF480624A6100214A
:1023800040F8301F202242738173026942F0040238
:10239000026101730120704700207047F8B50446C0
:1023A000C06A1E460D461746082807D0012805D0EA
:1023B00010F5803F02D0206B122804D120680168FC
:1023C00041F480710160134600224FF00111204654
:1023D000009600F05DF840B120680068C00502D5A5
:1023E0004FF4007020640320F8BD2069B0F5804FE1
:1023F0000ED00620216800EAD51040F0F0000861F8
:1024000033463A460B49204600F08AF878B902E094
:1024100005F0FE0000E0E8B2216808610549334696
:102420003A46891F204600F07BF80028DCD00120C6
:10243000F8BD00000800010070B516460D460446C0
:102440001EE02046FFF793FF08B1012070BD681C15
:1024500016D0FEF761FC801BA84200D885B9206821
:102460004069C04340070BD5002044F8300F2021BD
:102470006173A073216941F0200121612073E4E7B9
:1024800020684069C0434007DBD4002070BD0000D5
:102490002DE9F047984617460D460446C1F3074616
:1024A000DDF820902AE000BFB8F1FF3F26D0FEF70C
:1024B00033FCA0EB0901414502D8B8F1000F1DD152
:1024C0002068012E16D0806925EA00000004000C67
:1024D00012D00020B84211D1002044F8300F202142
:1024E0006173A073216941F02001216120730120F3
:1024F000BDE8F0874069E7E70120EBE72068012E9F
:102500000AD0806925EA00000004000C06D00020F3
:10251000B842C9D00020EBE74069F3E70120F7E7B4
:102520002DE9F047984616460D4604464FF000093F
:102530004FF0200AC1F3074723E020684069C043F9
:10254000400515D42068016841F4007101602168DC
:102550006FF480604861C4F8309084F83DA084F83E
:102560003E90216C41F00401216484F83C9021E00C
:10257000701C06D0FEF7D0FBA0EB0800B04203D8D9
:1025800016B1012F1FD021E02068012F15D08069DE
:1025900025EA00000004000C18D000BF44F8309F6A
:1025A00084F80DA084F80E90216941F0200121618A
:1025B00084F80C900120BDE8F087406925EA00000E
:1025C0000004000CEAD12068406901E020688069BD
:1025D00025EA00000004000CAFD1ECE770B5164608
:1025E0000D4604461EE02046FFF7C1FE08B101205B
:1025F00070BD681C16D0FEF78FFB801BA84200D868
:1026000085B920684069C04300060BD5002044F816
:10261000300F20216173A073216941F020012161F5
:102620002073E4E720684069C0430006DBD4002043
:1026300070BD000070B586B0002418480094019465
:1026400002940394816941F020018161816901F064
:1026500020010491816941F004018161816901F0E7
:1026600004010491816941F00801816180690C4E87
:1026700000F008004FF4007504900022294630460F
:10268000FEF745FB01200095CDE9010402200390EF
:1026900069463046FEF746FA06B070BD00100240AB
:1026A000000C01401CB50024174801941549009402
:1026B0000160611EC0E90114FFF72AFA08B172B681
:1026C000FEE78DF804408DF805408DF806400122A4
:1026D00001A90D48FFF7E2FA08B172B6FEE7012042
:1026E0008DF800008DF801008DF8020002468DF88B
:1026F000034069460448FFF76FFA002801D072B61C
:10270000FEE71CBD002800400005002010B586B083
:1027100000241748009401940294039404941349EC
:10272000059401604721C0E901144FF6FF71C0E92B
:10273000031444618461FFF75BFB08B172B6FEE7E6
:102740004FF48050009069460948FFF7E7FB08B155
:1027500072B6FEE7049404A905480594FFF714FB3C
:10276000002801D072B6FEE706B010BD002C014073
:1027700014050020FEE7FEE7010901EB810100F0EE
:102780000F0000EB4100C0B27047002102E00A38A0
:10279000C0B2491C0A28FAD2090740EA1160704702
:1027A0002DE9F04104460025C07B627BA37B42E01B
:1027B000012A16D0032A14D0052A12D0072A10D0D5
:1027C000082A0ED00A2A0CD00C2A0AD0042A10D0CB
:1027D000062A0ED0092A0CD00B2A0AD0022A0DD0C4
:1027E00028E01F2B0CD30C2A05D101221346401CD4
:1027F00020E01E2B04D30123521C1BE01C2B02D211
:1028000003F1010316E011D183B29E0710D16426B3
:10281000B3FBF6F706FB173636B94FF4C876B3FBB1
:10282000F6F706FB17331BB91D2303E01D2B01D15F
:10283000032201236D1C8D42BAD3D1B2E0736173C0
:10284000DAB2A27300F050F82073BDE8F08170B5E1
:102850000446FEF761FA05464FF47A7606E0FEF785
:102860005BFA401BB04201D9032070BD206840686C
:102870008006F4D52068416841F0100141600020D5
:1028800070BD000070B504460068416821F0100179
:102890004160FEF741FA05464FF47A7607E000BF43
:1028A000FEF73AFA401BB04201D9032070BD206800
:1028B00040688006F4D5002070BD0168086A496A46
:1028C00089B241EA00407047006881698AB2C169F3
:1028D0008BB2816989B28A4203D0C06961F31F401B
:1028E000704743EA02407047F0B56424C1EBC1036E
:1028F0000927A500072603EB01130329B3FBF7F112
:1029000000F5FA60114401440AD2401EB0FBF4F213
:1029100001EB9001B0FBF5F0891A0844001D08E0B6
:10292000B0FBF4F201EB9001B0FBF5F0891A08441A
:10293000801CB0FBF6F106FB1100C0B2F0BD70B513
:102940000D4606460024FFF782FF48B93168280C7F
:1029500008623168A8B248623046FFF793FF00B1C1
:102960000124204670BD70B50D4606460024FFF7D1
:102970006EFF48B93168280C88613168A8B2C86117
:102980003046FFF77FFF00B10124204670BD0000F4
:102990002DE9F05F802856D2402954D28418802C2B
:1029A00002D9C0F18002D2B2CC18402C02D9C1F1B8
:1029B0004003DBB201EB030BABF10104E51704EBC1
:1029C00055744FEAD109C4F3C70701F0070A4C4612
:1029D000DFF878E031E000252BE000BF00EBC41108
:1029E00029448EB2BAF1000F06D1082B04D34FF060
:1029F000000C0EF806C01AE0FF214C4502D101FA86
:102A00000AF1C9B2BC420CD15FEA4B7C09D00BF091
:102A1000070CCCF108084FF0FF0C0CFA08FC21EA77
:102A20000C011EF8068028EA01080EF806806D1CCD
:102A3000EDB29542D2D3641CE4B2BC42CBD9BDE81E
:102A4000F05F00F04FB9BDE8F09F0000AC0000203F
:102A500070B5802813D2402911D20B4B012401F00C
:102A600007051E79AC40094BC90800EBC1100EB137
:102A700032B101E0012A03D0195CA143195470BDA1
:102A8000195C2143FAE7000008000020AC00002098
:102A900028B1FF224FF480610248FDF78BBD002270
:102AA000F8E70000AC000020014A10805180704718
:102AB0000800002010B500F03BFF44F6206301221F
:102AC00078215448FEF7F2F908B1002010BD40F615
:102AD000C210401EFDD1AE220021782000F02EFF52
:102AE00020220021782000F029FF102200217820E8
:102AF00000F024FFB0220021782000F01FFFC82240
:102B00000021782000F01AFF00221146782000F002
:102B100015FF10220021782000F010FF4022002134
:102B2000782000F00BFF81220021782000F006FFC2
:102B3000FF220021782000F001FFA122002178204F
:102B400000F0FCFEA6220021782000F0F7FEA8226B
:102B50000021782000F0F2FE3F220021782000F0D2
:102B6000EDFEA4220021782000F0E8FED32200210F
:102B7000782000F0E3FE00221146782000F0DEFE0F
:102B8000D5220021782000F0D9FEF0220021782003
:102B900000F0D4FED9220021782000F0CFFE2222BE
:102BA0000021782000F0CAFEDA220021782000F00F
:102BB000C5FE12220021782000F0C0FEDB22002199
:102BC000782000F0BBFE20220021782000F0B6FE25
:102BD0008D220021782000F0B1FE142200217820FF
:102BE00000F0ACFEAF220021782000F0A7FE2E22DC
:102BF0000021782000F0A2FE0020FFF749FF00F03E
:102C000071F8054800210180418001214171084689
:102C100010BD0000AC040020080000202DE9F047A2
:102C2000814625480D46924601882A78114480291C
:102C300005D28046408869780844402802D30020A5
:102C4000BDE8F08700262AE0A9F1200101FB006021
:102C50006A68002432F810701DE000BF07FA04F023
:102C6000000409D5B8F80210B8F800003144204437
:102C700089B280B252460BE0BAF1000F1AD000229E
:102C8000B8F80210B8F800003144204489B280B28C
:102C9000FFF7DEFE641C2878A042DFD8761C687837
:102CA000B042D1D8B8F800102A7848461144A8F8A4
:102CB0000010C5E70122E3E70800002070B51546C3
:102CC0000E46044609E02A463146FFF7A7FF217861
:102CD000884201D0C8B270BD641C20780028F2D1AF
:102CE000C0B270BD70B5104D002400BF04F1B0003B
:102CF000C2B20021782000F021FE00221146782087
:102D000000F01CFE10220021782000F017FE05EBD9
:102D1000C41280234021782000F020FE641CE4B21D
:102D2000082CE3D370BD0000AC00002088B04EF644
:102D30006024002205A91248FEF77DFE002206A9A4
:102D40000F48FEF751FE9DF815309DF814200DA197
:102D50006846FDF795FA00210846FFF7A5FE002119
:102D60000F2380220846FFF713FE01220949684617
:102D7000FFF7A4FFFFF7B6FF204600F07DFBD8E782
:102D80000005002054696D653A253032643A2530DB
:102D900032640000000000205848FFF76BF8DFF8AD
:102DA0006081584C584D4FF4FA6900BFFDF752FE50
:102DB000002878D0FDF700FE2070FDF7FDFD607063
:102DC000FDF7FAFDA070FDF7F7FDE070FDF7F4FDEB
:102DD0002071277866780246A178B8194318E07800
:102DE0000344DBB2637193425DD17F2903D901F0C3
:102DF000F9F9414604E040EA012001F0F3F92946DF
:102E000001F00EF9E06046EA072001F0EBF92946EF
:102E100001F006F9206114210020FFF745FE20692A
:102E2000824601F0BFF9C6B206EB8600A6714000EB
:102E300001F0D8F907462946504601F0E7F939462E
:102E400001F0B0FA01F0AEF9C3B22C48E37132469A
:102E50002EA19030FDF714FA284801222F49903016
:102E6000FFF72CFF28210020FFF71EFEE66816F171
:102E7000FF4F1BD386F0004001F094F9C7B207EB77
:102E800087002772400001F0ADF982464146304686
:102E900001F0BCF9514601F085FA01F083F9C3B2A3
:102EA00063723A4600E025E01DA117E0304601F0CC
:102EB00079F9C7B207EB87002772400001F092F959
:102EC00082462946304601F0A1F9514601F06AFADE
:102ED00001F068F9C3B263723A4616A10748903010
:102EE000FDF7CEF9054801220C499030FFF7E6FEC8
:102EF000FFF7F8FE484600F0BFFA57E71405002038
:102F0000000020C1100000200000204148756D70B5
:102F10003A25642E2564202525202000000000206D
:102F200054656D703A2D25642E25642043202020A1
:102F30000000000054656D703A25642E256420431E
:102F40002020200010B5502080F31188BFF34F8F50
:102F5000BFF36F8F00F024FF18B104494FF0805089
:102F60000860002080F3118810BD000004ED00E02F
:102F700070B594B028216846FDF724FB14210AA8F7
:102F8000FDF720FB002401250F9410942804CDE9BF
:102F9000005011941294029402260495CDE9076022
:102FA0004FF4E01009906846FEF78EFB08B172B648
:102FB000FEE70F20CDE90A064FF48060CDE90C4012
:102FC00002210AA80E94FEF783FA08B172B6FEE752
:102FD0004FF44070CDE90F500FA8FEF703FA002818
:102FE00001D072B6FEE714B070BD70470148FFF71C
:102FF00004B8000008080020F0B50268194B1A4C0C
:103000001A4D4FF08047984205D0B84203D0A042F5
:1030100001D0A84203D122F070064A683243984298
:1030200005D0B84203D0A04201D0A84203D122F477
:103030004074CA6822434C6922F080022243026035
:103040008A68C2620A688262984201D10969016392
:10305000012141610169C90703D0016921F0010122
:103060000161F0BD002C0140000400400008004058
:1030700010B5846842EA032224F47F440A432243C1
:10308000826010BD826822F070020A4342F007019C
:103090008160704710B5036A046A24F00104046279
:1030A000846924F0F00444EA021423F00A020A437B
:1030B0008461026210BD10B5036A046A24F0100432
:1030C0000462846923F0A00324F4704444EA0232C9
:1030D00043EA01118261016210BD01680C3151E8BF
:1030E000002F22F4907241E80023002BF5D10168F3
:1030F000143151E8002F22F0010241E80023002B97
:10310000F5D1016B012909D101680C3151E8002F7B
:1031100022F0100241E80023002BF5D1202180F895
:10312000421000210163704770B5044600680169D0
:10313000E26821F44051114301612169A06808430C
:10314000616908432168CA6841F20C639A430243EB
:10315000CA6020684169A26921F44071114341614C
:103160001E492068884202D1FEF778FA01E0FEF796
:1031700065FA00EBC00101EB001260686421800079
:10318000B2FBF0F3B3FBF1F36FF018067343B2FB3D
:10319000F0F5B2FBF0F605EB8305322303EB0515E2
:1031A000B5FBF1F5B6FBF1F605F0F00505EB0615FC
:1031B000B2FBF0F6B2FBF0F0B0FBF1F06FF01802EA
:1031C000504306EB800003EB0010B0FBF1F02168E8
:1031D00000F00F002844886070BD000000380140F6
:1031E0002DE9F843984617460D460446089E24E00C
:1031F000701C22D0FDF790FDA0EB0800B0421AD859
:10320000CEB12068C168490717D5802D15D0402D53
:1032100013D00168C94309070FD40168002540682D
:1032200000902046FFF759FF0820606484F8405062
:103230000120BDE8F8830320FBE72068006835EA39
:10324000000004D00020B842D2D00020F1E70120D5
:10325000F9E7FEE70907090E002804DB00F1E0208A
:1032600080F80014704700F00F0000F1E02080F8B3
:10327000141D704730380A2801D201207047002001
:10328000704700009CB0FDF793FFFFF771FEFFF75A
:10329000D1F95F485D49002401605E49C0E901142D
:1032A0004FF48041C0E9034144618461C461046218
:1032B000FDF738FD08B172B6FEE7FFF727FAFFF712
:1032C000F1F953485449B03001604FF4E131C0E99D
:1032D00001140C21C460C0E904418461C461FEF79B
:1032E00032FF08B172B6FEE74FF47A70FDF708FCC2
:1032F000FFF7E0FB002549A16846FCF7C1FF6846DF
:10330000FDF707F982B242486F1E3B466946B0306E
:10331000FEF7DCFF08AE3E483B46012219A9B0305B
:10332000FEF77CFF9DF864000D2805D00A2803D025
:1033300070556D1CEDB2EEE7745508AA3AA16846C7
:10334000FCF79EFF6846FDF7E4F882B230483B4642
:103350006946B030FEF7BAFF08A8FDF7CDF88DF842
:103360006800002533A16846FCF78AFF6846FDF730
:10337000D0F882B226483B466946B030FEF7A6FF39
:1033800023483B46012219A9B030FEF747FF9DF8BC
:1033900064000D2805D00A2803D070556D1CEDB2CD
:1033A000EEE7745508AA26A16846FCF769FF68464F
:1033B000FDF7AFF882B216483B466946B030FEF7DB
:1033C00085FF08A8FDF798F88DF8690010480022DD
:1033D0001AA95430FEF762FC1C221C490BA8FDF709
:1033E000B7F800210BA800F053F8194C17491C221C
:1033F00060611C3112A8FDF7ABF8002112A800F0A3
:1034000047F8A06100F03FF8FEE7000000540040DC
:10341000AC040020801A0600003801406E6861701C
:103420002067696F0D0A000067696F3A2025730DE8
:103430000A0000006E68617020706875740D0A00E3
:10344000706875743A2025730D0A0000EC5100086D
:103450001000002001460020842900D0C81C7047BD
:10346000044900220B685A6209684A6A8242FCD306
:10347000704700001405002010B500B9012000F0CD
:1034800051FB002010BD10B500F072FB002010BDF4
:103490007FB50D4604464169B0F9080081B1A169C4
:1034A00071B1FFF7D7FFD4E905128DE80700D4E921
:1034B00000102B46226900F048FC039004B070BD58
:1034C000FFF7C8FF03A9CDE90001208A2B4682B28D
:1034D000D4E9001000F00CFC012801D00020EDE739
:1034E0000398EBE72DE9F041184C0F460546E668D6
:1034F0002068001D00F04EFA38B9206890F82C10B2
:1035000001208840216981432161681C07D137B1BE
:103510002168BDE8F0410E48091D00F07FBA20681F
:103520003544B5424560216805D2A06BBDE8F04145
:10353000091D00F05BBA606B091D00F057FAA06A24
:10354000854200D2A562BDE8F08100004400002061
:103550002C0900202DE9F041054600F06BFA2E4CB5
:10356000A068401CA06020682C4F10B1606940B377
:103570002DE02560A068012829D1002606EB8600F1
:1035800007EB800000F024FA761C072EF6D32348C0
:103590008C3000F01DFA2148A03000F019FA1F48C5
:1035A000B43000F015FA1D48C83000F011FA1B487D
:1035B000DC3000F00DFA19488C3060631430A063E1
:1035C00005E02068E96AC06A884200D82560606A20
:1035D000401C6062E96A0120226988401043206132
:1035E00001EB810007EB8000291D00F017FA00F0C5
:1035F00041FA606900280CD02068E96AC06A8842F4
:1036000007D207494FF080500860BFF34F8FBFF3D8
:103610006F8FBDE8F08100004400002050080020BA
:1036200004ED00E010B5044690F8510058B10128AF
:103630000CD002280FD0502080F31188BFF34F8F99
:10364000BFF36F8FFEE7206B00F028FA2046BDE83D
:10365000104000F023BA10BD10484FF440614207FB
:1036600006D0C01D0D4920F00700411AC1F5406188
:103670000B4A00230144C2E900030839183A21F03B
:10368000070111604B600B600B1AC0E900139360D7
:103690004FF0004053605061704700004009002027
:1036A00098000020144E154CA6F1C8074FF0805822
:1036B000DFF84C9012E000BF00F0BCF9F068C5687C
:1036C000281D00F067F9A068401EA0606068401ED9
:1036D000606000F0CFF92846FFF7A4FF606800287B
:1036E000EAD138680128F9D9C9F80080BFF34F8FB3
:1036F000BFF36F8FF2E7000018090020440000209C
:1037000004ED00E02DE9F0479A46DDE909848146A1
:103710006FF00303206B03EB82021044089E20F03D
:103720000707780707D0502080F31188BFF34F8F29
:10373000BFF36F8FFEE7002561B1002023180A5CFC
:1037400083F834200A5C12B1401C1028F6D384F8A8
:10375000435001E084F83450072E00D30626E66279
:10376000C4E91165201D00F03EF904F1180000F0D5
:103770003AF92461C6F107006462A061E56484F847
:10378000505052464946384600F0C0F82060B8F123
:10379000000F01D0C8F80040BDE8F08730B51149EE
:1037A00000E011460A688242FBD34B685C188442F1
:1037B00003D1406818444860084643681C18944286
:1037C00009D1084C183C2468A24209D052681A4416
:1037D00042600A6812680260814200D0086030BD11
:1037E0000460F9E7980000200648416B096829B198
:1037F000416BC968C9684968816270474FF0FF3101
:10380000FAE700004400002008484068401C4FF0E0
:10381000500080F3118804D0BFF34F8FBFF36F8F38
:10382000FEE7BFF34F8FBFF36F8FFEE7A0000020CE
:103830002DE9F0410546002700F0D0F9324E3068FE
:1038400008B9FFF709FF706905424ED1C5B30835C5
:1038500068070ED005F00700C0F1080005446807AE
:1038600007D0502080F31188BFF34F8FBFF36F8FC5
:10387000FEE72DB37068854237D8234818300146DB
:103880000C6801E020460C466168A94202D221681A
:103890000029F7D131688C4227D007682168016080
:1038A00060680837411B10290FD96019420708D0FA
:1038B000502080F31188BFF34F8FBFF36F8FFEE767
:1038C00013E041606560FFF769FF61687068401A46
:1038D0007060B268904200D2B0607069014300200D
:1038E000C4E90001F068401CF06000F0BFFA7807FE
:1038F00007D0502080F31188BFF34F8FBFF36F8F35
:10390000FEE73846BDE8F0818000002010B5031FB7
:103910004FF080741C601B1F21F001011960191FFA
:10392000024B0B60143940380A6010BD093800089A
:103930000148401EFDD1704790D003001CB5022302
:103940008DF804100A2100918DF80520014601AA86
:103950000148FDF761FB1CBDAC04002070B5C2B08E
:1039600000248DF8041001A904E0155D0E19641CF3
:103970007570E4B29C42F8D30A2100915B1C0146A9
:103980009BB201AA0248FDF747FB42B070BD0000A0
:10399000AC040020D0E9013201699A60D0E901232A
:1039A0005A604A68824201D182684A6000220261FC
:1039B0000868401E0860086870470000034B0360F9
:1039C00003F154000860802010607047B4050020A7
:1039D00000F108014FF0FF32C0E90112C16001613E
:1039E00000210160704700210161704730B50B680C
:1039F0005A1C02D000F1080202E0026904E02246EB
:103A0000546825689D42FAD953684B6099608A6072
:103A1000516008610168491C016030BD42684A601C
:103A200093688B6093685960916008610168491CD4
:103A300001607047502080F31188BFF34F8FBFF3B0
:103A40006F8F0A494868401C486001280CD108481B
:103A5000006810F0FF0F07D0502080F31188BFF3EB
:103A60004F8FBFF36F8FFEE770470000A00000206C
:103A700004ED00E00849486828B1401E486001D1C3
:103A800080F311887047502080F31188BFF34F8F67
:103A9000BFF36F8FFEE70000A000002070B5002884
:103AA0002AD0164DA0F1080460686969084207D160
:103AB000502080F31188BFF34F8FBFF36F8FFEE765
:103AC00022683AB1502080F31188BFF34F8FBFF3C3
:103AD0006F8FFEE78843606000F080F86068696877
:103AE000084468602046FFF759FE2869401C286199
:103AF000BDE8704000F0BAB970BD00008000002041
:103B00004FF0E02000210161816105494FF47A7294
:103B10000968B1FBF2F1491E41610721016170475B
:103B20004000002010B5020014D00F48006B38B1DF
:103B3000502080F31188BFF34F8FBFF36F8FFEE7E4
:103B400000F04CF800211046FFF7CCFC00F08EF995
:103B5000002807D105494FF080500860BFF34F8F10
:103B6000BFF36F8F10BD00004400002004ED00E0A3
:103B700010B586B00024039405AA04A903A80494F0
:103B8000FFF71CFFDDE903010094CDE901100023DC
:103B90000EA11048059A00F0D8F80F490028C86215
:103BA00011D0502080F31188BFF34F8FBFF36F8F78
:103BB0004FF0FF30886201204861CC6006B0BDE85C
:103BC000104000F041B806B010BD000049444C451B
:103BD00000000000A5360008440000200248016BE8
:103BE000491C016370470000440000201448016B29
:103BF00011B10121C16170470021C1610169B1FAB0
:103C000081F1C1F11F0101EB81020E4951F822300F
:103C10006BB101EB820101F108034A6852684A6006
:103C20009A4201D152684A60D168016070475020C1
:103C300080F31188BFF34F8FBFF36F8FFEE7000053
:103C400044000020500800201CB526490878019047
:103C5000FF20087008788DF800009DF800009DF89E
:103C6000002000F0F000904207D0502080F311882F
:103C7000BFF34F8FBFF36F8FFEE79DF800001A4C24
:103C800000F0500020700720A06005E09DF80020A3
:103C900052008DF80020401E9DF800201206F5D439
:103CA000A060032807D0502080F31188BFF34F8F06
:103CB000BFF36F8FFEE74FF44070A060019808706B
:103CC0000A48016841F470010160016841F07041E7
:103CD0000160FFF715FF00206060FCF777FA002015
:103CE0001CBD000000E400E0A000002020ED00E08A
:103CF0002DE9FF5F8346DDE90E87994616468A4621
:103D00009000FFF795FD05001CD05420FFF790FDB3
:103D1000040014D00020256384F85100CDE902404E
:103D2000CDE900874B46324651465846FFF7EAFC3C
:103D30002046FFF70FFC012004B0BDE8F09F2846A5
:103D4000FFF7ACFE4FF0FF30F6E7F0B585B0DDE9E8
:103D50000B640A9DA6B1DCB15427009726630226A6
:103D600084F85160002604AFCDE90246CDE9005742
:103D7000FFF7C8FC2046FFF7EDFB049805B0F0BD47
:103D8000502080F31188BFF34F8FBFF36F8FFEE792
:103D9000502080F31188BFF34F8FBFF36F8FFEE782
:103DA0002DE9F0412F4C0026206B28B1A069401C62
:103DB000A0613046BDE8F081E5686D1CE56013D177
:103DC000606B006838B1502080F31188BFF34F8FCB
:103DD000BFF36F8FFEE7606BA16B6163A063206A26
:103DE000401C2062FFF700FDA06ADFF87C8085425E
:103DF00009D3606B0068A0B1606BC068C768786861
:103E0000854211D2A0622068C06A00EB800158F898
:103E10002100012800D90126E0690028C9D0012627
:103E2000C7E74FF0FF30EDE7381DFFF7B3FDB86A85
:103E300018B107F11800FFF7ADFDF96A01202269FA
:103E400088401043206101EB810108EB8100391D9E
:103E5000FFF7E4FDF86A2168C96A8842C9D30126E0
:103E6000C7E7000044000020500800202DE9F0477B
:103E70002C4D00242746286B38B1FFF7DBFD286B5B
:103E8000401E2863286B40B146E0502080F3118823
:103E9000BFF34F8FBFF36F8FFEE7A968224E01205B
:103EA000D1B3A6F1B40980463068E8B1F068C468BF
:103EB00004F11800FFF76EFD201DFFF76BFDE06AAF
:103EC0002A6908FA00F11143296100EB800109EB2E
:103ED0008100211DFFF7A2FDE06A2968C96A8842B6
:103EE000E2D3C5F81C80DFE70CB1FFF77DFCAC69BD
:103EF00044B14646FFF754FF00B1EE61641EF9D1AC
:103F00000020A861E86938B108490127380708602E
:103F1000BFF34F8FBFF36F8FFFF7ACFD3846BDE89F
:103F2000F0870000440000200409002004ED00E0B8
:103F300010B500290AD00878002807D00548784431
:103F4000FCF7F2FC002801D0002010BD02487844A4
:103F500010BD00006E1300006613000090EA010F10
:103F600048BF81F0004100F12482421A3CBF801A10
:103F700089184FEAD0524FF07F4C1CEA410FA2EB58
:103F8000D15318BF9CEA026F00F03B804FF0004C09
:103F90004CEA00204CEA012121FA03FC10EB0C0C46
:103FA0001ED202F1FF325FEA1C2040EBC25038BF44
:103FB00070471CF07F0F4FEA400C18BFBCF17F4FD9
:103FC00038BF7047C3F12003994008BF20F00100BB
:103FD000BCF17F4F38BF7047A0F1C04000F0DDB9A1
:103FE0004FEA3C00000A40EBC25028BF1CF0FF0F14
:103FF0004FEA400CE6D018BFBCF17F4F38BF704786
:10400000EAE79CEA026F05D010EA5C0F08BF00F0F7
:104010000040704710B500F07AF900BF64FBBE3E67
:104020004FF47F0C1CEAD0121EBF1CEAD11392EA97
:104030000C0F93EA0C0F00F0858090EA010F48BF47
:1040400042F4807240F4000C41F400002CF07F41F7
:1040500020F07F4000B58142A2EB03020FF2081C62
:10406000ACEB504EC0F100009EF800E04FEA4E0E5F
:1040700000FB0EFC38BF49004FEA2C1C02F5FA0287
:104080000CFB0EF34FEACE1E4FEA112C4FEAC12172
:104090000EEB635E42EB22420EFB0CFC4FEA1C531C
:1040A00000FB03114FEA112C4FEA01310EFB0CFC0F
:1040B0004FEADC4C00FB0C11C14228BF09184CEB45
:1040C00003335DF804EB10EB410143EBC250B2F552
:1040D0007C0F38BF704729D512F0F00F1CBF00F1DC
:1040E000C04000F00040704700818283848586874D
:1040F00088898B8C8D8E8F919293959697999A9CA7
:104100009D9FA0A2A3A5A7A8AAACAEB0B2B3B5B715
:10411000B9BCBEC0C2C5C7C9CCCED1D4D7D9DCDFEB
:10412000E2E6E9ECF0F3F7FAFE0000004FEA400C9B
:104130000CF1807CBCF17E4F28BF7047B0F1C040CD
:1041400000F02BB990EA010F0CEAD11348BF42F4FA
:104150008072624538BF634507D213F47F0F16D0D3
:1041600080EA010000F00040704710B500F0CFF881
:10417000097EFC3E00F005B880EA010000F0004036
:10418000704780EA010000F0004000F006B912F428
:104190007F0F04BF0248704780EA010000F0FDB8BD
:1041A0000000C07FC10DD1F19E0206DB4FEA002363
:1041B00043F0004323FA02F07047004207D54FEA6C
:1041C0004001B1F1FE4F02D24FF00000704710B530
:1041D00000F09DF849922480002070476FEA20008B
:1041E00070470000B0FA80F310FA03F2C3F19D03A8
:1041F0000AD0D90501EB1220530638BF704700F1F1
:10420000010008BF20F00100704700004FF47F0C50
:104210001CEAD0121EBF1CEAD11392EA0C0F93EADB
:104220000C0F00F0478090EA010F48BF42F4807203
:104230004FF0004C4CEA00204CEA012102EB030253
:10424000A0FB0113A2F50002002918BF43F00103EF
:104250005B0028BF4FEA330342EB22425FEA132C94
:104260004CEBC2502EBFBCEB436FB2F57C0F7047D6
:104270004FEA036CBCF1004F08BF20F00100B2F51B
:104280007C0F38BF70470BD582F0FF0212F5803FDC
:10429000C8BF704700F1C040D8BF00F00040704771
:1042A00000F5000C5FEA4C0C48BF7047B0F1C0400D
:1042B00000F073B890EA010F0CEAD11348BF42F442
:1042C0008072624538BF634504D280EA010000F085
:1042D0000040704710B500F01AF800BF8900013E99
:1042E00000F007B800F009B85FEA410C5FEA1C6C07
:1042F00008D080EA010000F050B85FEA400C5FEAA5
:104300001C6CF6D14FF00040A0F5800070470EF114
:10431000020E2EF0030E5EF8044B244204D44FEA42
:104320004102B2F17F4F11D84FEA4003B3F17F4F02
:104330000CD80ED14FEAD07CB2F17F4F0CEB4C0C75
:104340000CF1020C08BF4CEBD17C04E04FF0080CE0
:1043500001E04FEAD17C0CEB4C0324FA03F404F0A7
:104360000704B4F1040C06D20EEB840CBDE8104037
:104370004CF0010C6047DFE80CF0070802024FF038
:104380000040A0F5800010BD0846420018BFD2F1E1
:10439000807288BF00F0004010BDFF2141EAD0507C
:1043A000C005704790EA010F48BF81F000413FF51A
:1043B000DCAD421A04D882F00042A0EB02001144A6
:1043C0004FEAD0524FF07F4C1CEA410FA2EBD15381
:1043D00018BF9CEA026F4AD04FF0004C4CEA002014
:1043E0004CEA012121FA03FCB0EB0C0C0FD412F0C3
:1043F000FE0F36D05FEA4C001DD5001240EBC250D4
:1044000038BF70471CF03F0F18BF70470BE0A2F198
:1044100001025FEA1C2040EBC25038BF70471CF01D
:104420007F0F18BF7047C3F12003994014BF401E8F
:1044300020F00100704780084FEA122308BF704740
:10444000B0FA80FCA2EB0C02CCF1280C60FA0CF064
:1044500093EA122F04BF00EBC25070474FEAC370BB
:104460007047130A5FEADC1008BF7047F6E79CEA62
:10447000026F04D010EA5C0F08BF0020704710B52F
:10448000FFF745FF40DFF63E81F000407047000037
:10449000000000000000000000000000000000001C
:1044A000000000000000000000000000000000000C
:1044B00000000000000C000C000C000C000C000CB4
:1044C000000C000C000C000C000C0000000C000C98
:1044D0000000000000000000001B001B001B001B70
:1044E000001B0000000000000000000000000000B1
:1044F000000000000000000000000000801980198A
:1045000080198019C07FC07F80190033C07FC07FB1
:1045100000330033003300330000000000000000CF
:10452000001E003F807580650074003C001E00077F
:104530008005806580658075003F001E00040004D2
:1045400000000000007000D840D8C0D880D90073A7
:104550000006000C801BC036C066C046C006800343
:104560000000000000000000001E003F0033003388
:104570000033001E000CC03CC06680638061806315
:10458000C03E801C0000000000000000000C000C79
:10459000000C000C000C00000000000000000000F7
:1045A000000000000000000000000000000080008B
:1045B00000010003000600060004000C000C000CC3
:1045C000000C000C000C00040006000600030001B3
:1045D0008000002000100018000C000C00040006F1
:1045E000000600060006000600060004000C000C91
:1045F0000018001000200000000C002D003F001EDD
:104600000033000000000000000000000000000077
:10461000000000000000000000000000000000009A
:10462000000C000C000C000CC0FFC0FF000C000CC4
:10463000000C000C00000000000000000000000062
:10464000000000000000000000000000000000006A
:104650000000000000000000000C000C000400043A
:104660000008000000000000000000000000000042
:1046700000000000001E001E0000000000000000FE
:10468000000000000000000000000000000000002A
:10469000000000000000000000000000000000001A
:1046A000000C000C000000000000000000030003EC
:1046B00000030006000600060006000C000C000CBB
:1046C000000C001800180018000000000000000096
:1046D000001E003F0033806180618061806D806DCD
:1046E0008061806180610033003F001E0000000097
:1046F000000000000006000E001E00360026000626
:104700000006000600060006000600060006000679
:104710000000000000000000001E003F8073806168
:104720008061800100030006000C0018003000606A
:10473000807F807F0000000000000000001C003E21
:10474000006300630003000E000E0003800180017F
:1047500080618073003F001E000000000000000028
:104760000006000E000E001E001E00160036003669
:104770000066807F807F00060006000600000000C3
:1047800000000000007F007F006000600060006E9D
:10479000007F80638001800180618073003F001E84
:1047A0000000000000000000001E003F8033806118
:1047B0000060006E007F8073806180618061803363
:1047C000003F001E0000000000000000807F807F8E
:1047D00080010003000300060006000C000C000C22
:1047E0000008001800180018000000000000000079
:1047F000001E003F8063806180610021001E003F39
:104800008061806180618061003F001E00000000C7
:1048100000000000001E003F007380618061806125
:104820008073803F801D800180610073003F001E07
:104830000000000000000000000000000000000078
:10484000000C000C00000000000000000000000050
:10485000000C000C00000000000000000000000040
:10486000000000000000000C000C00000000000030
:1048700000000000000C000C000400040008000010
:1048800000000000000080008003000E003800607F
:104890000038000E800380000000000000000000CF
:1048A000000000000000000000000000807F807F0A
:1048B00000000000807F807F0000000000000000FA
:1048C00000000000000000000000000000000040A8
:1048D0000070001C000780010007001C00700040F1
:1048E000000000000000000000000000001F803FEA
:1048F000C071C060C000C00180030007000E000C42
:10490000000C0000000C000C000000000000000083
:10491000001E003F803180718063806F806D806DEC
:10492000806F806700600032003E001C00000000C5
:1049300000000000000E000E001B001B001B001BEF
:1049400080318031803F803F8031C060C060C06076
:104950000000000000000000007C007E0063006397
:1049600000630063007E007E00638061806180637D
:10497000007F007E0000000000000000001E003FDD
:104980008031806100600060006000600060006055
:1049900080618031003F001E000000000000000028
:1049A000007C007F00638063806180618061806142
:1049B0008061806100630063007E007C0000000075
:1049C00000000000807F807F006000600060006069
:1049D000007F007F0060006000600060807F807F5B
:1049E0000000000000000000807F807F0060006009
:1049F00000600060007F007F006000600060006079
:104A0000006000600000000000000000001E003F89
:104A1000803180610060006000608063806380613D
:104A200080618031803F001E000000000000000017
:104A3000806180618061806180618061807F807F32
:104A40008061806180618061806180610000000020
:104A500000000000003F003F000C000C000C000CA8
:104A6000000C000C000C000C000C000C003F003F80
:104A70000000000000000000800180018001800132
:104A800080018001800180018001806180618073EC
:104A9000003F001E0000000000000000C0608061B8
:104AA000006300660066006C0078007C00660066AB
:104AB000006380618061C0600000000000000000B1
:104AC00000600060006000600060006000600060E6
:104AD0000060006000600060807F807F0000000058
:104AE00000000000C071C071C07BC07AC06AC06A9B
:104AF000C06EC064C060C060C060C060C060C060A4
:104B000000000000000000008071807180798079D1
:104B10008079806D806D806D80658067806780673B
:104B2000806380630000000000000000001E003F62
:104B3000003380618061806180618061806180611B
:104B400080610033003F001E0000000000000000F4
:104B5000007E007F80638061806180618063007F70
:104B6000007E0060006000600060006000000000E7
:104B700000000000001E003F003380618061806102
:104B8000806180618061806580670033803F401E66
:104B90000000000000000000007E007F8063806154
:104BA00080618063007F007E006600630063806137
:104BB0008061C0600000000000000000000E001FC7
:104BC0008031803100300038001E00078003806192
:104BD00080618031003F001E0000000000000000E6
:104BE000C0FFC0FF000C000C000C000C000C000CFF
:104BF000000C000C000C000C000C000C000000006D
:104C0000000000008061806180618061806180615E
:104C1000806180618061806180618073003F001EDF
:104C20000000000000000000C060C060C060803173
:104C300080318031001B001B001B001B000E000E8A
:104C4000000E00040000000000000000C0C0C0C052
:104C5000C0C0C0C0C0C0C0CC804C804C805E805200
:104C600080528073806180610000000000000000BD
:104C7000C0C0806080610033003B001E000C000C4F
:104C8000001E001F003B80718061C0C0000000005A
:104C900000000000C0C08061806100330033001E4E
:104CA000001E000C000C000C000C000C000C000C92
:104CB0000000000000000000803F803F80010003F2
:104CC00000030006000C000C001800180030006003
:104CD000807F807F000000000000000F000F000CAC
:104CE000000C000C000C000C000C000C000C000C64
:104CF000000C000C000C000C000C000F000F00005A
:104D0000001800180018000C000C000C000C000625
:104D10000006000600060003000300030000000078
:104D20000000001E001E0006000600060006000629
:104D30000006000600060006000600060006000643
:104D40000006001E001E0000000C000C001E0012D9
:104D5000003300338061806100000000000000002B
:104D60000000000000000000000000000000000043
:104D70000000000000000000000000000000000033
:104D800000000000000000000000E0FF0000000044
:104D900000380018000C00000000000000000000B7
:104DA0000000000000000000000000000000000003
:104DB000000000000000000000000000001F803F15
:104DC00080618001801F803F80618063807FC03868
:104DD0000000000000000000006000600060006053
:104DE000006E007F8073806180618061806180736C
:104DF000007F006E000000000000000000000000C6
:104E000000000000001E003F8073806100600060B1
:104E100080618073003F001E000000000000000061
:104E20008001800180018001801D803F807380614E
:104E30008061806180618073803F801D0000000080
:104E4000000000000000000000000000001E003F05
:104E500000738061807F807F00608071003F001E52
:104E60000000000000000000C007C00F000C000C94
:104E7000807F807F000C000C000C000C000C000CEC
:104E8000000C000C0000000000000000000000000A
:104E90000000801D803F807380618061806180613F
:104EA0008073803F801D80018063007F003E000092
:104EB0000060006000600060006F807F8071806132
:104EC000806180618061806180618061000000009C
:104ED000000000000006000600000000003E003E4A
:104EE0000006000600060006000600060006000692
:104EF0000000000000000006000600000000003E68
:104F0000003E000600060006000600060006000639
:104F1000000600060046007E003C000000600060C5
:104F200000600060806100630066006C007C0076B9
:104F3000006300638061C0600000000000000000AA
:104F4000003E003E000600060006000600060006C1
:104F5000000600060006000600060006000000002D
:104F600000000000000000000000000080DDC0FF25
:104F7000C0CEC0CCC0CCC0CCC0CCC0CCC0CCC0CCCF
:104F80000000000000000000000000000000000021
:104F9000006F807F8071806180618061806180614D
:104FA000806180610000000000000000000000003F
:104FB00000000000001E003F8073806180618061FE
:104FC00080618073003F001E0000000000000000B0
:104FD000000000000000006E007F8073806180612F
:104FE000806180618073007F006E006000600060FF
:104FF00000600000000000000000801D803F807302
:1050000080618061806180618073803F801D80014C
:10501000800180018001000000000000000000000D
:105020000067803F00390030003000300030003031
:105030000030003000000000000000000000000010
:1050400000000000001E803F80610060007F803F04
:1050500080018061007F001E000000000000000051
:105060000000000800180018007F007F00180018DA
:105070000018001800180018801F800F00000000A2
:10508000000000000000000000000000806180615E
:10509000806180618061806180618063807F803D0C
:1050A0000000000000000000000000000000000000
:1050B000C060803180318031001B001B001B000E5E
:1050C000000E0006000000000000000000000000CC
:1050D0000000000080DD80DD80DD005500550055BA
:1050E000007700770022002200000000000000008E
:1050F0000000000000000000806100330033001E4B
:10510000000C000C001E0033003380610000000022
:10511000000000000000000000008061806180311C
:1051200000330033001B001B001B000E000E000E9E
:10513000001C007C00700000000000000000000067
:10514000C07FC07F800100030006000C0018003003
:10515000C07FC07F000000000000800380070006C1
:105160000006000600060006000E001C001C000ED3
:105170000006000600060006000680078003000601
:1051800000060006000600060006000600060006EF
:1051900000060006000600060006000600060006DF
:1051A00000060038003C000C000C000C000C000C49
:1051B000000E00070007000E000C000C000C000C95
:1051C000000C003C0038000000000000000000005F
:1051D000000000008038807F0047000000000000D1
:1051E00000000000000000000000000080520008E5
:1051F0002D2D0008000000000000000080000000CD
:10520000000000000000000074520008992D000802
:10521000000000000000000080000000000000000E
:1052200000000000010202030405060708090A0B3A
:105230000C0D0E0F101001020203040506070809E9
:105240000A0B0C0D0E0F10100000000000000000F3
:10525000010203040607080900000000010203041C
:10526000040000080000000000000002000100002F
:105270001000000064687432325F7461736B000068
:10528000636C6F636B5F7461736B0000BC530008E9
:1052900000000020AC00000028010008685400084D
:1052A000AC000020F41A00004401000810010000C6
:1052B00043000000F8FFFFFF0040404040404040F6
:1052C00040404141414141404040404040404040D9
:1052D000404040404040404040050202020202027D
:1052E00002020202020202020220202020202020CC
:1052F00020202002020202020202909090909090E0
:10530000101010101010101010101010101010109D
:105310001010101002020202020288888888888811
:1053200008080808080808080808080808080808FD
:105330000808080802020202400000000000000005
:10534000000000000000000000000000000000005D
:10535000000000000000000000000000000000004D
:10536000000000000000000000000000000000003D
:10537000000000000000000000000000000000002D
:10538000000000000000000000000000000000001D
:10539000000000000000000000000000000000000D
:1053A00000000000000000000000000000000000FD
:1053B0000000000000000000000000000B120000D0
:1053C0008E44000800000000000000000000000003
:1053D00000000000000000000000000000000000CD
:1053E00000000000000000000000000000000000BD
:1053F00001000000100000000000000000127A0010
:10540000000000000000000000000000000000009C
:10541000000000000000000000000000000000008C
:10542000000000000000000000000000000000007C
:10543000000000000000000000000000000000006C
:10544000000000000000000000000000000000005C
:10545000000000000000000000000000000000004C
:08546000AAAAAAAA000000009C
:04000005080000ED02
:00000001FF
